:100000000A128A11FC2FFF1B0D2883137F188317F8
:100010000008840A0319FF0A080000308A00040857
:10002000840A820700343134323433343434353482
:1000300036343734383439342A3430342334543471
:1000400069346E3479344D344C3420345134753441
:100050006134643472346134743469346334003428
:1000600054347234613469346E343A342034783420
:10007000203479340034533461346D3470346C344A
:10008000653473343A342034003449346E34663481
:1000900065347234203478343A340034793420347E
:0600A0003D342034003461
:10025A0001300A128A113C210800F20083120814A4
:10026A008810720887000A128A1147210800F200D2
:10027A008312031308108810720887000A128A1161
:10028A004721080008150D30F100FB30F000F00B93
:10029A004C29F10B4C295129831203130811080028
:1002AA00F200F101721C5D297008FF007F08F10756
:1002BA000310F00D0310F20C7208031D5729710880
:1002CA000800F400740303196C29C0306D298030CA
:1002DA00F5000030F60075087307FF3E0A128A110E
:1002EA003C210800F401F501701C81297208F40709
:1002FA000318F50A7308F50701300310F20DF30D20
:10030A00FF3E031D822901300310F10CF00CFF3E61
:10031A00031D892970087104031D79297508F100E4
:10032A007408F00008007408FF00730884000A12B9
:10033A008A1103200A128A11003A03190800740864
:10034A00FF00730884000A128A1103200A128A1114
:10035A000A128A1132210A128A110130F30703188C
:10036A00F40A0030F407982983168701880182303D
:10037A00F400DD30F300F30BC029F40BC029C529C2
:10038A0038300A128A113C210A128A110C300A12D8
:10039A008A113C210A128A1101300A128A113C215F
:1003AA000A128A1106300A128A113C21080000300A
:1003BA00FC000030FB000030FA000030F900701C2D
:1003CA00FA297408F907750803110318013E031D79
:1003DA00FA07760803110318013E031DFB07770885
:1003EA0003110318013E031DFC070130F800031036
:1003FA00F40DF50DF60DF70DF80BFC29013003107D
:10040A00F30CF20CF10CF00CFF3E031D042A7308E6
:10041A00720471047004031DE4297C08F3007B084C
:10042A00F2007A08F1007908F0000800F501F31FDC
:10043A00252AF209F309F20A0319F30AF501F50A62
:10044A00F11F2C2AF009F109F00A0319F10A7008C0
:10045A0071040319592AF401F40AF11B402A0130E4
:10046A000310F00DF10DFF3E031D352A0130FF0088
:10047A007F08F407322A71087302031D462A70089E
:10048A007202031C4E2A7008F2027108031CF3035D
:10049A00F30201300310F10CF00CFF3E031D4F2A4A
:1004AA000130F402031D402A75080319612AF20972
:1004BA00F309F20A0319F30A7308F1007208F0004B
:1004CA0008007B08FD007A08FC000830FF007D0D5B
:1004DA00FD0CFC0CFF0B6C2A7C08F8007D08F90067
:1004EA000A128A1165230A128A112E300A128A11F7
:1004FA0032210A128A11FF307A05F00000307B059A
:10050A00F1006430F2000030F3000A128A117721F8
:10051A000A128A117008FC007108FD000830FF00F9
:10052A007D0DFD0CFC0CFF0B952A7C088312A9009B
:10053A007D08AA0000302A020A300319290203188A
:10054A00AC2A30300A128A1132210A128A112A0878
:10055A00F9002908F8000A128A1165230800F60131
:10056A00F030FF007F088312031386041030F30073
:10057A00760AC12A0310F30DFF3E031DBF2A730832
:10058A00FF3AFF007F0886051030F300F30BCB2AF1
:10059A000000F7010130F300770AD52A0310F30DA2
:1005AA00FF3E031DD32A7308831203130605031D96
:1005BA00FA2A0630F5001330F400AD30F300F30BDD
:1005CA00E42AF40BE42AF50BE42AEB2A0330F000C0
:1005DA0076080A128A1155210A128A11013E7707F2
:1005EA0084000A128A110D2008000130FF007F08DA
:1005FA00F70703307702031CCF2A0130FF007F0878
:10060A00F60704307602031CB52A00300800F5010B
:10061A00F11F162BF009F109F00A0319F10AF50185
:10062A00F50AF31F212BF209F309F20A0319F30A57
:10063A000130FF007F08F506F601F7017008710422
:10064A000319582BF401F40AF11B372B013003105C
:10065A00F00DF10DFF3E031D2C2B0130FF007F082A
:10066A00F407292B01300310F60DF70DFF3E031D89
:10067A00382B71087302031D442B70087202031C85
:10068A004D2B7008F2027108031CF303F30276146F
:10069A0001300310F10CF00CFF3E031D4E2B01300C
:1006AA00F402031D372B75080319602BF609F709A5
:1006BA00F60A0319F70A7708F1007608F00008002D
:1006CA0006308312A800A701F91F722BA701A70AF7
:1006DA00F809F909F80A0319F90AA601FF30FF0017
:1006EA007F08A80778087904031D852B2808203E6F
:1006FA008400303083138000FF30FF007F08A80792
:10070A00780879040319B32B2808203E84000A309C
:10071A00F0000030F1007908F3007808F2000A12BC
:10072A008A111B220A128A117008303E8313800034
:10073A00FF30FF007F08A8070A30F0000030F10000
:10074A007908F3007808F2000A128A110C230A12B7
:10075A008A117108F9007008F800852B2708031917
:10076A00C02B2808203E84002D3083138000FF30E0
:10077A00FF007F08A8072808013E203EF300F40185
:10078A000A128A11982108002608F4002708F500A1
:10079A000030F51BFF30F600F7002608F0002708A6
:1007AA00F1000030F11BFF30F200F3000A128A1147
:1007BA00DC210A128A117008A8007108A9007208BF
:1007CA00AA007308AB000830AC002B0DAB0CAA0CC6
:1007DA00A90CA80CAC0BEA2B2808B4002908B50010
:1007EA000030B51BFF30B600B7002208F00023081E
:1007FA00F1000030F11BFF30F200F3002608F4008C
:10080A002708F5000030F51BFF30F600F7000A1242
:10081A008A11DC210A128A117008A8007108A9003D
:10082A007208AA007308AB000830AC002B0DAB0CA1
:10083A00AA0CA90CA80CAC0B1B2C2008F000210850
:10084A00F1000030F11BFF30F200F3003708F70027
:10085A003608F6003508F5003408F4000A128A1141
:10086A00DC210A128A117008AD007108AE00720804
:10087A00AF007308B0000830B100300DB00CAF0CF7
:10088A00AE0CAD0CB10B422C28082D07B20029087A
:10089A000318290A2E07B30024083207A0002508E6
:1008AA000318250A3307A1000800D600D9013C081D
:1008BA005902031808005608840083130008A00090
:1008CA00840A0008A100380884000008A200840AEB
:1008DA000008A300390884000008A400840A00085C
:1008EA00A5005908BF003F073A07C0004008840026
:1008FA000008A600840A0008A7000A128A11C92360
:10090A000A128A112108D1002008D0005908BF0014
:10091A003F073B07C0004008840083130008C1005A
:10092A00840A0008C20041085002D7004208031C8A
:10093A00420A5102D8005908BF003F073A07C000CF
:10094A00400884000008C100840A0008C200410867
:10095A00F4004208F5000030F51BFF30F600F700FE
:10096A005908C30043073A07C40044088400000832
:10097A00C500840A0008C6004508F0004608F100D0
:10098A000030F11BFF30F200F3000A128A11DC2159
:10099A000A128A117008C7007108C8007208C900D3
:1009AA007308CA000830CB004A0DCA0CC90CC80C1F
:1009BA00C70CCB0BD92C4708D2004808D30000300B
:1009CA00D31BFF30D400D5005508F7005408F600B1
:1009DA005308F5005208F4005708F0005808F100CF
:1009EA000030F11BFF30F200F3000A128A11DC21F9
:1009FA000A128A117008BF007108C0007208C1008B
:100A0A007308C2000830C300420DC20CC10CC00CEE
:100A1A00BF0CC30B092D3F08CC004008CD000030A5
:100A2A00CD1BFF30CE00CF003D08F0003E08F1009C
:100A3A000030F11BFF30F200F3004F08F7004E08B8
:100A4A00F6004D08F5004C08F4000A128A11DC2160
:100A5A000A128A117008BF007108C0007208C1002A
:100A6A007308C2000830C300420DC20CC10CC00C8E
:100A7A00BF0CC30B392D560884003F08831380022C
:100A8A00840F4008031C8003800284035908BF00B6
:100A9A003F073A07C000400884000008C100840AE2
:100AAA000008C2004108F4004208F5000030F51BB6
:100ABA00FF30F600F7005708F0005808F100003040
:100ACA00F11BFF30F200F3000A128A11DC210A122C
:100ADA008A117008C3007108C4007208C50073083F
:100AEA00C6000830C700460DC60CC50CC40CC30CA2
:100AFA00C70B782D4308D2004408D3000030D31B1B
:100B0A00FF30D400D5003D08F0003E08F100003067
:100B1A00F11BFF30F200F3005508F7005408F60005
:100B2A005308F5005208F4000A128A11DC210A124D
:100B3A008A117008BF007108C0007208C1007308EA
:100B4A00C2000830C300420DC20CC10CC00CBF0C5D
:100B5A00C30BA82D380884003F0883138002840F32
:100B6A004008031C8003800284033D08F0003E080D
:100B7A00F1000030F11BFF30F200F3005708F400D7
:100B8A005808F5000030F51BFF30F600F7000A128E
:100B9A008A11DC210A128A117008BF007108C0008C
:100BAA007208C1007308C2000830C300420DC20CAB
:100BBA00C10CC00CBF0CC30BDB2D390884003F08E5
:100BCA0083138002840F4008031C8003800284037D
:100BDA000130FF007F08D9075C2C0F30831686008E
:100BEA008113FF30831286000A128A11B9210A1270
:100BFA008A110A128A112D210A128A110D30F30064
:100C0A008030F4000A128A1198210A128A11831676
:100C1A00D401D501D601D701D801D9010C30C800B9
:100C2A000030C900DA010A30831603135A02031886
:100C3A001C2F0A128A112D210A128A111E30F30062
:100C4A008030F4000A128A1198210A128A11F301DB
:100C5A00F30A02300A128A1166210A128A118316CD
:100C6A00CC01CD01CE01CF01D2010230831603138C
:100C7A0052020318BD2E0A128A11B4220A128A11CC
:100C8A0083160313DC005C0803193A2E23305C0632
:100C9A000319BD2E30305C02031CA52E3A305C02CB
:100CAA000318A52E5208031D7D2E4D08F1004C088D
:100CBA00F0000A30F2000030F3000A128A1177219C
:100CCA000A128A1183165C0870078312DA00003050
:100CDA00031801307107DB005A08D03E8316CC0096
:100CEA0083125B080318013EFF3E8316CD009F2E38
:100CFA004F08F1004E08F0000A30F2000030F3000D
:100D0A000A128A1177210A128A1183165C0870075F
:100D1A008312DA000030031801307107DB005A0829
:100D2A00D03E8316CE0083125B080318013EFF3EB5
:100D3A008316CF005C080A128A1132210A128A111C
:100D4A002A3083165C06031DB42E0130FF007F088B
:100D5A00D20720300A128A1132210A128A110A1283
:100D6A008A11B4220A128A11003A03193A2EB42EB1
:100D7A004D088312DB0083164C088312DA005A08E6
:100D8A00DB00DA0183165A088312DC005C07B43EE2
:100D9A0084005A0883138000840A5B088000831643
:100DAA004F088312DB0083164E088312DA005A08B2
:100DBA00DB00DA0183165A088312DC005C07A03EC6
:100DCA0084005A088000840A5B0880000130FF0012
:100DDA007F088316DA070A128A112D210A128A114C
:100DEA002930F3008030F4000A128A1198210A127D
:100DFA008A1183165A088312DA00DB015A08F800AE
:100E0A005B08F9000A128A1165230A128A11153041
:100E1A0083120313DC004B30DB00BD30DA00DA0B3F
:100E2A00142FDB0B142FDC0B142F1B2F182ED301BE
:100E3A00D6308312B800D830B900B430BA00A03026
:100E4A00BB0083165A088312BC0083164908831212
:100E5A00BE00831648088312BD00D4300A128A11D4
:100E6A005A240A128A110130FF007F088316D30719
:100E7A0014305302031C1D2F0A128A112D210A1243
:100E8A008A113330F3008030F4000A128A11982153
:100E9A000A128A11F301F30A02300A128A11662130
:100EAA000A128A118316D001D1010A128A11B422B8
:100EBA000A128A1183160313DB005B0803195A2FDF
:100ECA0023305B060319A22F30305B02031C992FD3
:100EDA003A305B020318992F5108F1005008F000CC
:100EEA000A30F2000030F3000A128A1177210A123E
:100EFA008A1183165B0870078312DA000030031820
:100F0A0001307107DB005A08D03E8316D0008312E5
:100F1A005B080318013EFF3E8316D1005B080A12E4
:100F2A008A1132210A128A110A128A11B4220A1269
:100F3A008A11003A03195A2F992F55088312A100D2
:100F4A00831654088312A000831657088312A3003D
:100F5A00831656088312A200831659088312A50025
:100F6A00831658088312A400831651088312DB00E3
:100F7A00831650088312DA005A08DB00DA015A088D
:100F8A00A6005B08A7000A128A11C9230A128A114D
:100F9A0021088316CB00831220088316CA000A127E
:100FAA008A112D210A128A113C30F3008030F40094
:100FBA000A128A1198210A128A1183164B08FB0019
:100FCA004A08FA000A128A1166220A128A1127307E
:100FDA0083120313DC000D30DB002530DA00DA0B54
:100FEA00F42FDB0BF42FDC0BF42FFB2F412F8301A3
:060FFA000A128A11F22D1B
:02400E00723FFF
:00000001FF
